{
  "_format": "hh-sol-artifact-1",
  "contractName": "Counter",
  "sourceName": "contracts/Counter.sol",
  "abi": [
    {
      "inputs": [],
      "name": "count",
      "outputs": [
        {
          "internalType": "uint256",
          "name": "",
          "type": "uint256"
        }
      ],
      "stateMutability": "nonpayable",
      "type": "function"
    }
  ],
  "bytecode": "0x608060405234801561001057600080fd5b50610320806100206000396000f3fe608060405234801561001057600080fd5b506004361061002b5760003560e01c806306661abd14610030575b600080fd5b61003861004e565b604051610045919061018e565b60405180910390f35b6000806000815480929190610062906101d8565b91905055506100a86040518060400160405280600e81526020017f436f756e746572206973206e6f770000000000000000000000000000000000008152506000546100b0565b600054905090565b61014882826040516024016100c69291906102ba565b6040516020818303038152906040527f9710a9d0000000000000000000000000000000000000000000000000000000007bffffffffffffffffffffffffffffffffffffffffffffffffffffffff19166020820180517bffffffffffffffffffffffffffffffffffffffffffffffffffffffff838183161783525050505061014c565b5050565b60008151905060006a636f6e736f6c652e6c6f679050602083016000808483855afa5050505050565b6000819050919050565b61018881610175565b82525050565b60006020820190506101a3600083018461017f565b92915050565b7f4e487b7100000000000000000000000000000000000000000000000000000000600052601160045260246000fd5b60006101e382610175565b91507fffffffffffffffffffffffffffffffffffffffffffffffffffffffffffffffff821415610216576102156101a9565b5b600182019050919050565b600081519050919050565b600082825260208201905092915050565b60005b8381101561025b578082015181840152602081019050610240565b8381111561026a576000848401525b50505050565b6000601f19601f8301169050919050565b600061028c82610221565b610296818561022c565b93506102a681856020860161023d565b6102af81610270565b840191505092915050565b600060408201905081810360008301526102d48185610281565b90506102e3602083018461017f565b939250505056fea264697066735822122058c0cdc36ddc70d1b56ee838dfc35eca7a65fc88165ea41af72408ffd868e71764736f6c634300080a0033",
  "linkReferences": {},
  "deployedLinkReferences": {}
}